{
  "contractName": "kyc",
  "abi": [
    {
      "inputs": [],
      "payable": false,
      "stateMutability": "nonpayable",
      "type": "constructor"
    },
    {
      "constant": false,
      "inputs": [
        {
          "name": "_userName",
          "type": "string"
        },
        {
          "name": "_customerData",
          "type": "string"
        }
      ],
      "name": "addKycRequest",
      "outputs": [
        {
          "name": "",
          "type": "uint8"
        }
      ],
      "payable": false,
      "stateMutability": "nonpayable",
      "type": "function"
    },
    {
      "constant": false,
      "inputs": [
        {
          "name": "_userName",
          "type": "string"
        },
        {
          "name": "_customerData",
          "type": "string"
        }
      ],
      "name": "addCustomer",
      "outputs": [
        {
          "name": "",
          "type": "uint8"
        }
      ],
      "payable": false,
      "stateMutability": "nonpayable",
      "type": "function"
    },
    {
      "constant": false,
      "inputs": [
        {
          "name": "_userName",
          "type": "string"
        }
      ],
      "name": "removeKYCRequest",
      "outputs": [
        {
          "name": "",
          "type": "uint8"
        }
      ],
      "payable": false,
      "stateMutability": "nonpayable",
      "type": "function"
    },
    {
      "constant": false,
      "inputs": [
        {
          "name": "_userName",
          "type": "string"
        }
      ],
      "name": "removeCustomer",
      "outputs": [
        {
          "name": "",
          "type": "uint8"
        }
      ],
      "payable": false,
      "stateMutability": "nonpayable",
      "type": "function"
    },
    {
      "constant": false,
      "inputs": [
        {
          "name": "_userName",
          "type": "string"
        },
        {
          "name": "_newcustomerData",
          "type": "string"
        }
      ],
      "name": "modifyCustomer",
      "outputs": [
        {
          "name": "",
          "type": "uint8"
        }
      ],
      "payable": false,
      "stateMutability": "nonpayable",
      "type": "function"
    },
    {
      "constant": true,
      "inputs": [
        {
          "name": "_userName",
          "type": "string"
        },
        {
          "name": "_password",
          "type": "string"
        }
      ],
      "name": "viewCustomer",
      "outputs": [
        {
          "name": "",
          "type": "string"
        }
      ],
      "payable": false,
      "stateMutability": "view",
      "type": "function"
    },
    {
      "constant": false,
      "inputs": [
        {
          "name": "_userName",
          "type": "string"
        }
      ],
      "name": "Upvote",
      "outputs": [
        {
          "name": "",
          "type": "uint8"
        }
      ],
      "payable": false,
      "stateMutability": "nonpayable",
      "type": "function"
    },
    {
      "constant": true,
      "inputs": [
        {
          "name": "_bankAddress",
          "type": "address"
        }
      ],
      "name": "getBankDetails",
      "outputs": [
        {
          "name": "",
          "type": "address"
        },
        {
          "name": "",
          "type": "string"
        },
        {
          "name": "",
          "type": "string"
        },
        {
          "name": "",
          "type": "uint256"
        },
        {
          "name": "",
          "type": "uint256"
        }
      ],
      "payable": false,
      "stateMutability": "view",
      "type": "function"
    },
    {
      "constant": false,
      "inputs": [
        {
          "name": "_bankAddress",
          "type": "address"
        }
      ],
      "name": "addBankRatings",
      "outputs": [
        {
          "name": "",
          "type": "uint8"
        }
      ],
      "payable": false,
      "stateMutability": "nonpayable",
      "type": "function"
    },
    {
      "constant": true,
      "inputs": [
        {
          "name": "_customerName",
          "type": "string"
        }
      ],
      "name": "getCustomerRating",
      "outputs": [
        {
          "name": "",
          "type": "uint256"
        }
      ],
      "payable": false,
      "stateMutability": "view",
      "type": "function"
    },
    {
      "constant": true,
      "inputs": [
        {
          "name": "_bankAddress",
          "type": "address"
        }
      ],
      "name": "getBankRating",
      "outputs": [
        {
          "name": "",
          "type": "uint256"
        }
      ],
      "payable": false,
      "stateMutability": "view",
      "type": "function"
    },
    {
      "constant": true,
      "inputs": [
        {
          "name": "_customerName",
          "type": "string"
        }
      ],
      "name": "getResourceHistory",
      "outputs": [
        {
          "name": "",
          "type": "address"
        }
      ],
      "payable": false,
      "stateMutability": "view",
      "type": "function"
    },
    {
      "constant": false,
      "inputs": [
        {
          "name": "_bankName",
          "type": "string"
        },
        {
          "name": "_bankAddress",
          "type": "address"
        },
        {
          "name": "_regNumber",
          "type": "string"
        }
      ],
      "name": "addBank",
      "outputs": [
        {
          "name": "",
          "type": "uint8"
        }
      ],
      "payable": false,
      "stateMutability": "nonpayable",
      "type": "function"
    },
    {
      "constant": false,
      "inputs": [
        {
          "name": "_bankAddress",
          "type": "address"
        }
      ],
      "name": "removeBank",
      "outputs": [
        {
          "name": "",
          "type": "uint8"
        }
      ],
      "payable": false,
      "stateMutability": "nonpayable",
      "type": "function"
    },
    {
      "constant": false,
      "inputs": [
        {
          "name": "_userName",
          "type": "string"
        },
        {
          "name": "_password",
          "type": "string"
        }
      ],
      "name": "setPassword",
      "outputs": [
        {
          "name": "",
          "type": "uint8"
        }
      ],
      "payable": false,
      "stateMutability": "nonpayable",
      "type": "function"
    },
    {
      "constant": true,
      "inputs": [
        {
          "name": "_bankAddress",
          "type": "address"
        }
      ],
      "name": "getBankRequests",
      "outputs": [
        {
          "name": "",
          "type": "uint256"
        }
      ],
      "payable": false,
      "stateMutability": "view",
      "type": "function"
    }
  ],
  "bytecode": "0x608060405234801561001057600080fd5b50336000806101000a81548173ffffffffffffffffffffffffffffffffffffffff021916908373ffffffffffffffffffffffffffffffffffffffff160217905550613609806100606000396000f3fe608060405234801561001057600080fd5b50600436106101005760003560e01c80638eafe0f011610097578063ccfa8e7111610066578063ccfa8e7114610bf2578063d4a46c5114610d7e578063f72860ca14610eea578063fc55ea9d1461105657610100565b80638eafe0f0146109015780639649650c146109d0578063b8144a7214610a2e578063ca38649614610a8657610100565b80633190abc0116100d35780633190abc0146105e4578063628e09ad146107505780637280cf4d146107a857806380c733fd146108a357610100565b806315101e02146101055780631e8eba6e1461026f5780631f2c141a146103445780632ec1fbf01461050f575b600080fd5b6101476004803603602081101561011b57600080fd5b81019080803573ffffffffffffffffffffffffffffffffffffffff16906020019092919050505061112b565b604051808673ffffffffffffffffffffffffffffffffffffffff1673ffffffffffffffffffffffffffffffffffffffff1681526020018060200180602001858152602001848152602001838103835287818151815260200191508051906020019080838360005b838110156101c95780820151818401526020810190506101ae565b50505050905090810190601f1680156101f65780820380516001836020036101000a031916815260200191505b50838103825286818151815260200191508051906020019080838360005b8381101561022f578082015181840152602081019050610214565b50505050905090810190601f16801561025c5780820380516001836020036101000a031916815260200191505b5097505050505050505060405180910390f35b6103286004803603602081101561028557600080fd5b81019080803590602001906401000000008111156102a257600080fd5b8201836020820111156102b457600080fd5b803590602001918460018302840111640100000000831117156102d657600080fd5b91908080601f016020809104026020016040519081016040528093929190818152602001838380828437600081840152601f19601f8201169050808301925050505050505091929192905050506113eb565b604051808260ff1660ff16815260200191505060405180910390f35b6104946004803603604081101561035a57600080fd5b810190808035906020019064010000000081111561037757600080fd5b82018360208201111561038957600080fd5b803590602001918460018302840111640100000000831117156103ab57600080fd5b91908080601f016020809104026020016040519081016040528093929190818152602001838380828437600081840152601f19601f8201169050808301925050505050505091929192908035906020019064010000000081111561040e57600080fd5b82018360208201111561042057600080fd5b8035906020019184600183028401116401000000008311171561044257600080fd5b91908080601f016020809104026020016040519081016040528093929190818152602001838380828437600081840152601f19601f820116905080830192505050505050509192919290505050611633565b6040518080602001828103825283818151815260200191508051906020019080838360005b838110156104d45780820151818401526020810190506104b9565b50505050905090810190601f1680156105015780820380516001836020036101000a031916815260200191505b509250505060405180910390f35b6105c86004803603602081101561052557600080fd5b810190808035906020019064010000000081111561054257600080fd5b82018360208201111561055457600080fd5b8035906020019184600183028401116401000000008311171561057657600080fd5b91908080601f016020809104026020016040519081016040528093929190818152602001838380828437600081840152601f19601f820116905080830192505050505050509192919290505050611a86565b604051808260ff1660ff16815260200191505060405180910390f35b610734600480360360408110156105fa57600080fd5b810190808035906020019064010000000081111561061757600080fd5b82018360208201111561062957600080fd5b8035906020019184600183028401116401000000008311171561064b57600080fd5b91908080601f016020809104026020016040519081016040528093929190818152602001838380828437600081840152601f19601f820116905080830192505050505050509192919290803590602001906401000000008111156106ae57600080fd5b8201836020820111156106c057600080fd5b803590602001918460018302840111640100000000831117156106e257600080fd5b91908080601f016020809104026020016040519081016040528093929190818152602001838380828437600081840152601f19601f820116905080830192505050505050509192919290505050611c29565b604051808260ff1660ff16815260200191505060405180910390f35b6107926004803603602081101561076657600080fd5b81019080803573ffffffffffffffffffffffffffffffffffffffff169060200190929190505050612041565b6040518082815260200191505060405180910390f35b610861600480360360208110156107be57600080fd5b81019080803590602001906401000000008111156107db57600080fd5b8201836020820111156107ed57600080fd5b8035906020019184600183028401116401000000008311171561080f57600080fd5b91908080601f016020809104026020016040519081016040528093929190818152602001838380828437600081840152601f19601f82011690508083019250505050505050919291929050505061208d565b604051808273ffffffffffffffffffffffffffffffffffffffff1673ffffffffffffffffffffffffffffffffffffffff16815260200191505060405180910390f35b6108e5600480360360208110156108b957600080fd5b81019080803573ffffffffffffffffffffffffffffffffffffffff169060200190929190505050612250565b604051808260ff1660ff16815260200191505060405180910390f35b6109ba6004803603602081101561091757600080fd5b810190808035906020019064010000000081111561093457600080fd5b82018360208201111561094657600080fd5b8035906020019184600183028401116401000000008311171561096857600080fd5b91908080601f016020809104026020016040519081016040528093929190818152602001838380828437600081840152601f19601f8201169050808301925050505050505091929192905050506123dd565b6040518082815260200191505060405180910390f35b610a12600480360360208110156109e657600080fd5b81019080803573ffffffffffffffffffffffffffffffffffffffff169060200190929190505050612580565b604051808260ff1660ff16815260200191505060405180910390f35b610a7060048036036020811015610a4457600080fd5b81019080803573ffffffffffffffffffffffffffffffffffffffff1690602001909291905050506128a9565b6040518082815260200191505060405180910390f35b610bd660048036036040811015610a9c57600080fd5b8101908080359060200190640100000000811115610ab957600080fd5b820183602082011115610acb57600080fd5b80359060200191846001830284011164010000000083111715610aed57600080fd5b91908080601f016020809104026020016040519081016040528093929190818152602001838380828437600081840152601f19601f82011690508083019250505050505050919291929080359060200190640100000000811115610b5057600080fd5b820183602082011115610b6257600080fd5b80359060200191846001830284011164010000000083111715610b8457600080fd5b91908080601f016020809104026020016040519081016040528093929190818152602001838380828437600081840152601f19601f8201169050808301925050505050505091929192905050506128f5565b604051808260ff1660ff16815260200191505060405180910390f35b610d6260048036036060811015610c0857600080fd5b8101908080359060200190640100000000811115610c2557600080fd5b820183602082011115610c3757600080fd5b80359060200191846001830284011164010000000083111715610c5957600080fd5b91908080601f016020809104026020016040519081016040528093929190818152602001838380828437600081840152601f19601f820116905080830192505050505050509192919290803573ffffffffffffffffffffffffffffffffffffffff16906020019092919080359060200190640100000000811115610cdc57600080fd5b820183602082011115610cee57600080fd5b80359060200191846001830284011164010000000083111715610d1057600080fd5b91908080601f016020809104026020016040519081016040528093929190818152602001838380828437600081840152601f19601f820116905080830192505050505050509192919290505050612982565b604051808260ff1660ff16815260200191505060405180910390f35b610ece60048036036040811015610d9457600080fd5b8101908080359060200190640100000000811115610db157600080fd5b820183602082011115610dc357600080fd5b80359060200191846001830284011164010000000083111715610de557600080fd5b91908080601f016020809104026020016040519081016040528093929190818152602001838380828437600081840152601f19601f82011690508083019250505050505050919291929080359060200190640100000000811115610e4857600080fd5b820183602082011115610e5a57600080fd5b80359060200191846001830284011164010000000083111715610e7c57600080fd5b91908080601f016020809104026020016040519081016040528093929190818152602001838380828437600081840152601f19601f820116905080830192505050505050509192919290505050612b80565b604051808260ff1660ff16815260200191505060405180910390f35b61103a60048036036040811015610f0057600080fd5b8101908080359060200190640100000000811115610f1d57600080fd5b820183602082011115610f2f57600080fd5b80359060200191846001830284011164010000000083111715610f5157600080fd5b91908080601f016020809104026020016040519081016040528093929190818152602001838380828437600081840152601f19601f82011690508083019250505050505050919291929080359060200190640100000000811115610fb457600080fd5b820183602082011115610fc657600080fd5b80359060200191846001830284011164010000000083111715610fe857600080fd5b91908080601f016020809104026020016040519081016040528093929190818152602001838380828437600081840152601f19601f820116905080830192505050505050509192919290505050612f65565b604051808260ff1660ff16815260200191505060405180910390f35b61110f6004803603602081101561106c57600080fd5b810190808035906020019064010000000081111561108957600080fd5b82018360208201111561109b57600080fd5b803590602001918460018302840111640100000000831117156110bd57600080fd5b91908080601f016020809104026020016040519081016040528093929190818152602001838380828437600081840152601f19601f820116905080830192505050505050509192919290505050613043565b604051808260ff1660ff16815260200191505060405180910390f35b6000606080600080600360008773ffffffffffffffffffffffffffffffffffffffff1673ffffffffffffffffffffffffffffffffffffffff16815260200190815260200160002060000160009054906101000a900473ffffffffffffffffffffffffffffffffffffffff16600360008873ffffffffffffffffffffffffffffffffffffffff1673ffffffffffffffffffffffffffffffffffffffff168152602001908152602001600020600101600360008973ffffffffffffffffffffffffffffffffffffffff1673ffffffffffffffffffffffffffffffffffffffff168152602001908152602001600020600201600360008a73ffffffffffffffffffffffffffffffffffffffff1673ffffffffffffffffffffffffffffffffffffffff16815260200190815260200160002060030154600360008b73ffffffffffffffffffffffffffffffffffffffff1673ffffffffffffffffffffffffffffffffffffffff16815260200190815260200160002060040154838054600181600116156101000203166002900480601f0160208091040260200160405190810160405280929190818152602001828054600181600116156101000203166002900480156113355780601f1061130a57610100808354040283529160200191611335565b820191906000526020600020905b81548152906001019060200180831161131857829003601f168201915b50505050509350828054600181600116156101000203166002900480601f0160208091040260200160405190810160405280929190818152602001828054600181600116156101000203166002900480156113d15780601f106113a6576101008083540402835291602001916113d1565b820191906000526020600020905b8154815290600101906020018083116113b457829003601f168201915b505050505092509450945094509450945091939590929450565b60008060009050600090505b6006805490508160ff16101561162a5761149d600560068360ff168154811061141c57fe5b9060005260206000200160405180828054600181600116156101000203166002900480156114815780601f1061145f576101008083540402835291820191611481565b820191906000526020600020905b81548152906001019060200180831161146d575b5050915050908152602001604051809103902060000184613209565b1561161d57600560068260ff16815481106114b457fe5b9060005260206000200160405180828054600181600116156101000203166002900480156115195780601f106114f7576101008083540402835291820191611519565b820191906000526020600020905b815481529060010190602001808311611505575b505091505090815260200160405180910390206000808201600061153d9190613348565b60018201600061154d9190613348565b6002820160006101000a81549073ffffffffffffffffffffffffffffffffffffffff02191690556002820160146101000a81549060ff0219169055505060006001820160ff1690505b60068054905081101561160157600681815481106115b057fe5b90600052602060002001600660018303815481106115ca57fe5b9060005260206000200190805460018160011615610100020316600290046115f3929190613390565b508080600101915050611596565b5060068054809190600190036116179190613417565b50600190505b80806001019150506113f7565b80915050919050565b606080829050600081511415611788576040518060400160405280600181526020017f300000000000000000000000000000000000000000000000000000000000000081525092506001846040518082805190602001908083835b602083106116b1578051825260208201915060208101905060208303925061168e565b6001836020036101000a03801982511681845116808217855250505050505090500191505090815260200160405180910390206001018054600181600116156101000203166002900480601f01602080910402602001604051908101604052809291908181526020018280546001816001161561010002031660029004801561177b5780601f106117505761010080835404028352916020019161177b565b820191906000526020600020905b81548152906001019060200180831161175e57829003601f168201915b5050505050915050611a80565b60606001856040518082805190602001908083835b602083106117c0578051825260208201915060208101905060208303925061179d565b6001836020036101000a03801982511681845116808217855250505050505090500191505090815260200160405180910390206004018054600181600116156101000203166002900480601f01602080910402602001604051908101604052809291908181526020018280546001816001161561010002031660029004801561188a5780601f1061185f5761010080835404028352916020019161188a565b820191906000526020600020905b81548152906001019060200180831161186d57829003601f168201915b50505050509050805182511415611a7d5760008090505b825181101561196e578181815181106118b657fe5b602001015160f81c60f81b7effffffffffffffffffffffffffffffffffffffffffffffffffffffffffffff19168382815181106118ef57fe5b602001015160f81c60f81b7effffffffffffffffffffffffffffffffffffffffffffffffffffffffffffff191614611961576040518060400160405280600181526020017f30000000000000000000000000000000000000000000000000000000000000008152509350505050611a80565b80806001019150506118a1565b506001856040518082805190602001908083835b602083106119a55780518252602082019150602081019050602083039250611982565b6001836020036101000a03801982511681845116808217855250505050505090500191505090815260200160405180910390206001018054600181600116156101000203166002900480601f016020809104026020016040519081016040528092919081815260200182805460018160011615610100020316600290048015611a6f5780601f10611a4457610100808354040283529160200191611a6f565b820191906000526020600020905b815481529060010190602001808311611a5257829003601f168201915b505050505092505050611a80565b50505b92915050565b600080600090505b600280549050811015611c1e57611abb60028281548110611aab57fe5b9060005260206000200184613209565b15611c11576001836040518082805190602001908083835b60208310611af65780518252602082019150602081019050602083039250611ad3565b6001836020036101000a0380198251168184511680821785525050505050509050019150509081526020016040518091039020600201600081819054906101000a900460ff168092919060010191906101000a81548160ff021916908360ff16021790555050426007846040518082805190602001908083835b60208310611b935780518252602082019150602081019050602083039250611b70565b6001836020036101000a038019825116818451168082178552505050505050905001915050908152602001604051809103902060003373ffffffffffffffffffffffffffffffffffffffff1673ffffffffffffffffffffffffffffffffffffffff168152602001908152602001600020819055506001915050611c24565b8080600101915050611a8e565b50600090505b919050565b60008073ffffffffffffffffffffffffffffffffffffffff166001846040518082805190602001908083835b60208310611c785780518252602082019150602081019050602083039250611c55565b6001836020036101000a038019825116818451168082178552505050505050905001915050908152602001604051809103902060020160019054906101000a900473ffffffffffffffffffffffffffffffffffffffff1673ffffffffffffffffffffffffffffffffffffffff1614611d3b576040517f08c379a00000000000000000000000000000000000000000000000000000000081526004018080602001828103825260568152602001806135416056913960600191505060405180910390fd5b600115156005836040518082805190602001908083835b60208310611d755780518252602082019150602081019050602083039250611d52565b6001836020036101000a038019825116818451168082178552505050505050905001915050908152602001604051809103902060020160149054906101000a900460ff16151514611dc557600080fd5b826001846040518082805190602001908083835b60208310611dfc5780518252602082019150602081019050602083039250611dd9565b6001836020036101000a03801982511681845116808217855250505050505090500191505090815260200160405180910390206000019080519060200190611e45929190613443565b50816001846040518082805190602001908083835b60208310611e7d5780518252602082019150602081019050602083039250611e5a565b6001836020036101000a03801982511681845116808217855250505050505090500191505090815260200160405180910390206001019080519060200190611ec6929190613443565b50336001846040518082805190602001908083835b60208310611efe5780518252602082019150602081019050602083039250611edb565b6001836020036101000a038019825116818451168082178552505050505050905001915050908152602001604051809103902060020160016101000a81548173ffffffffffffffffffffffffffffffffffffffff021916908373ffffffffffffffffffffffffffffffffffffffff16021790555060006001846040518082805190602001908083835b60208310611faa5780518252602082019150602081019050602083039250611f87565b6001836020036101000a038019825116818451168082178552505050505050905001915050908152602001604051809103902060020160006101000a81548160ff021916908360ff1602179055506002839080600181540180825580915050906001820390600052602060002001600090919290919091509080519060200190612035929190613443565b50506001905092915050565b6000600360008373ffffffffffffffffffffffffffffffffffffffff1673ffffffffffffffffffffffffffffffffffffffff168152602001908152602001600020600401549050919050565b60008073ffffffffffffffffffffffffffffffffffffffff166001836040518082805190602001908083835b602083106120dc57805182526020820191506020810190506020830392506120b9565b6001836020036101000a038019825116818451168082178552505050505050905001915050908152602001604051809103902060020160019054906101000a900473ffffffffffffffffffffffffffffffffffffffff1673ffffffffffffffffffffffffffffffffffffffff16146121bc576040517f08c379a00000000000000000000000000000000000000000000000000000000081526004018080602001828103825260138152602001807f437573746f6d6572206e6f7420666f756e642e0000000000000000000000000081525060200191505060405180910390fd5b6001826040518082805190602001908083835b602083106121f257805182526020820191506020810190506020830392506121cf565b6001836020036101000a038019825116818451168082178552505050505050905001915050908152602001604051809103902060020160019054906101000a900473ffffffffffffffffffffffffffffffffffffffff169050919050565b600080600090505b6004805490508110156123d2578273ffffffffffffffffffffffffffffffffffffffff16600360006004848154811061228d57fe5b9060005260206000200160009054906101000a900473ffffffffffffffffffffffffffffffffffffffff1673ffffffffffffffffffffffffffffffffffffffff1673ffffffffffffffffffffffffffffffffffffffff16815260200190815260200160002060000160009054906101000a900473ffffffffffffffffffffffffffffffffffffffff1673ffffffffffffffffffffffffffffffffffffffff1614156123c557600360006004838154811061234357fe5b9060005260206000200160009054906101000a900473ffffffffffffffffffffffffffffffffffffffff1673ffffffffffffffffffffffffffffffffffffffff1673ffffffffffffffffffffffffffffffffffffffff1681526020019081526020016000206003016000815480929190600101919050555060019150506123d8565b8080600101915050612258565b50600090505b919050565b60008073ffffffffffffffffffffffffffffffffffffffff166001836040518082805190602001908083835b6020831061242c5780518252602082019150602081019050602083039250612409565b6001836020036101000a038019825116818451168082178552505050505050905001915050908152602001604051809103902060020160019054906101000a900473ffffffffffffffffffffffffffffffffffffffff1673ffffffffffffffffffffffffffffffffffffffff161461250c576040517f08c379a00000000000000000000000000000000000000000000000000000000081526004018080602001828103825260138152602001807f437573746f6d6572206e6f7420666f756e642e0000000000000000000000000081525060200191505060405180910390fd5b6001826040518082805190602001908083835b60208310612542578051825260208201915060208101905060208303925061251f565b6001836020036101000a0380198251168184511680821785525050505050509050019150509081526020016040518091039020600301549050919050565b60008060009054906101000a900473ffffffffffffffffffffffffffffffffffffffff1673ffffffffffffffffffffffffffffffffffffffff163373ffffffffffffffffffffffffffffffffffffffff1614612644576040517f08c379a00000000000000000000000000000000000000000000000000000000081526004018080602001828103825260208152602001807f5573657220646f6573206e6f7420686176652070726f70657220726f6c65732e81525060200191505060405180910390fd5b60008090505b60048054905081101561289e578273ffffffffffffffffffffffffffffffffffffffff16600360006004848154811061267f57fe5b9060005260206000200160009054906101000a900473ffffffffffffffffffffffffffffffffffffffff1673ffffffffffffffffffffffffffffffffffffffff1673ffffffffffffffffffffffffffffffffffffffff16815260200190815260200160002060000160009054906101000a900473ffffffffffffffffffffffffffffffffffffffff1673ffffffffffffffffffffffffffffffffffffffff16141561289157600360008473ffffffffffffffffffffffffffffffffffffffff1673ffffffffffffffffffffffffffffffffffffffff168152602001908152602001600020600080820160006101000a81549073ffffffffffffffffffffffffffffffffffffffff021916905560018201600061279b9190613348565b6002820160006127ab9190613348565b60038201600090556004820160009055505060006001820190505b60048054905081101561287057600481815481106127e057fe5b9060005260206000200160009054906101000a900473ffffffffffffffffffffffffffffffffffffffff166004600183038154811061281b57fe5b9060005260206000200160006101000a81548173ffffffffffffffffffffffffffffffffffffffff021916908373ffffffffffffffffffffffffffffffffffffffff16021790555080806001019150506127c6565b50600480548091906001900361288691906134c3565b5060019150506128a4565b808060010191505061264a565b50600090505b919050565b6000600360008373ffffffffffffffffffffffffffffffffffffffff1673ffffffffffffffffffffffffffffffffffffffff168152602001908152602001600020600301549050919050565b6000816001846040518082805190602001908083835b6020831061292e578051825260208201915060208101905060208303925061290b565b6001836020036101000a03801982511681845116808217855250505050505090500191505090815260200160405180910390206004019080519060200190612977929190613443565b506001905092915050565b60008060009054906101000a900473ffffffffffffffffffffffffffffffffffffffff1673ffffffffffffffffffffffffffffffffffffffff163373ffffffffffffffffffffffffffffffffffffffff1614612a46576040517f08c379a00000000000000000000000000000000000000000000000000000000081526004018080602001828103825260208152602001807f5573657220646f6573206e6f7420686176652070726f70657220726f6c65732e81525060200191505060405180910390fd5b82600360008573ffffffffffffffffffffffffffffffffffffffff1673ffffffffffffffffffffffffffffffffffffffff16815260200190815260200160002060000160006101000a81548173ffffffffffffffffffffffffffffffffffffffff021916908373ffffffffffffffffffffffffffffffffffffffff16021790555083600360008573ffffffffffffffffffffffffffffffffffffffff1673ffffffffffffffffffffffffffffffffffffffff1681526020019081526020016000206001019080519060200190612b1d929190613443565b5081600360008573ffffffffffffffffffffffffffffffffffffffff1673ffffffffffffffffffffffffffffffffffffffff1681526020019081526020016000206002019080519060200190612b74929190613443565b50600190509392505050565b60008073ffffffffffffffffffffffffffffffffffffffff166005836040518082805190602001908083835b60208310612bcf5780518252602082019150602081019050602083039250612bac565b6001836020036101000a038019825116818451168082178552505050505050905001915050908152602001604051809103902060020160009054906101000a900473ffffffffffffffffffffffffffffffffffffffff1673ffffffffffffffffffffffffffffffffffffffff1614612c92576040517f08c379a000000000000000000000000000000000000000000000000000000000815260040180806020018281038252603e815260200180613597603e913960400191505060405180910390fd5b6001600360003373ffffffffffffffffffffffffffffffffffffffff1673ffffffffffffffffffffffffffffffffffffffff168152602001908152602001600020600301546002021115612f5a57816005836040518082805190602001908083835b60208310612d175780518252602082019150602081019050602083039250612cf4565b6001836020036101000a03801982511681845116808217855250505050505090500191505090815260200160405180910390206001019080519060200190612d60929190613443565b50826005836040518082805190602001908083835b60208310612d985780518252602082019150602081019050602083039250612d75565b6001836020036101000a03801982511681845116808217855250505050505090500191505090815260200160405180910390206000019080519060200190612de1929190613443565b50336005836040518082805190602001908083835b60208310612e195780518252602082019150602081019050602083039250612df6565b6001836020036101000a038019825116818451168082178552505050505050905001915050908152602001604051809103902060020160006101000a81548173ffffffffffffffffffffffffffffffffffffffff021916908373ffffffffffffffffffffffffffffffffffffffff16021790555060016005836040518082805190602001908083835b60208310612ec55780518252602082019150602081019050602083039250612ea2565b6001836020036101000a038019825116818451168082178552505050505050905001915050908152602001604051809103902060020160146101000a81548160ff0219169083151502179055506006829080600181540180825580915050906001820390600052602060002001600090919290919091509080519060200190612f4f929190613443565b505060019050612f5f565b600090505b92915050565b600080600090505b60028054905081101561303757612f9a60028281548110612f8a57fe5b9060005260206000200185613209565b1561302a57826001856040518082805190602001908083835b60208310612fd65780518252602082019150602081019050602083039250612fb3565b6001836020036101000a0380198251168184511680821785525050505050509050019150509081526020016040518091039020600101908051906020019061301f929190613443565b50600191505061303d565b8080600101915050612f6d565b50600090505b92915050565b600080600090505b6002805490508110156131fe576130786002828154811061306857fe5b9060005260206000200184613209565b156131f1576001836040518082805190602001908083835b602083106130b35780518252602082019150602081019050602083039250613090565b6001836020036101000a0380198251168184511680821785525050505050509050019150509081526020016040518091039020600080820160006130f79190613348565b6001820160006131079190613348565b6002820160006101000a81549060ff02191690556002820160016101000a81549073ffffffffffffffffffffffffffffffffffffffff0219169055600382016000905560048201600061315a9190613348565b505060006001820190505b6002805490508110156131d0576002818154811061317f57fe5b906000526020600020016002600183038154811061319957fe5b9060005260206000200190805460018160011615610100020316600290046131c2929190613390565b508080600101915050613165565b5060028054809190600190036131e69190613417565b506001915050613204565b808060010191505061304b565b50600090505b919050565b60008083905060608390508051828054600181600116156101000203166002900490501461323c57600092505050613342565b60008090505b8280546001816001161561010002031660029004905081101561333a5781818151811061326b57fe5b602001015160f81c60f81b7effffffffffffffffffffffffffffffffffffffffffffffffffffffffffffff191683828154600181600116156101000203166002900481106132b557fe5b8154600116156132d45790600052602060002090602091828204019190065b9054901a7f0100000000000000000000000000000000000000000000000000000000000000027effffffffffffffffffffffffffffffffffffffffffffffffffffffffffffff19161461332d5760009350505050613342565b8080600101915050613242565b506001925050505b92915050565b50805460018160011615610100020316600290046000825580601f1061336e575061338d565b601f01602090049060005260206000209081019061338c91906134ef565b5b50565b828054600181600116156101000203166002900490600052602060002090601f016020900481019282601f106133c95780548555613406565b8280016001018555821561340657600052602060002091601f016020900482015b828111156134055782548255916001019190600101906133ea565b5b50905061341391906134ef565b5090565b81548183558181111561343e5781836000526020600020918201910161343d9190613514565b5b505050565b828054600181600116156101000203166002900490600052602060002090601f016020900481019282601f1061348457805160ff19168380011785556134b2565b828001600101855582156134b2579182015b828111156134b1578251825591602001919060010190613496565b5b5090506134bf91906134ef565b5090565b8154818355818111156134ea578183600052602060002091820191016134e991906134ef565b5b505050565b61351191905b8082111561350d5760008160009055506001016134f5565b5090565b90565b61353d91905b8082111561353957600081816135309190613348565b5060010161351a565b5090565b9056fe5468697320637573746f6d657220697320616c72656164792070726573656e742c20706c656173652063616c6c206d6f64696679437573746f6d657220746f20656469742074686520637573746f6d6572206461746154686973207573657220616c7265616479206861732061204b5943207265717565737420776974682073616d65206461746120696e2070726f636573732ea265627a7a72305820cf74476a615a7ca9c81d93899dad022a6711b8f773002a81f012adb7bef828ba64736f6c63430005090032",
  "source": "pragma solidity ^0.5.9;\r\n\r\ncontract kyc {\r\n\r\n  \r\n    address admin;\r\n    \r\n    /*\r\n    Struct for a customer\r\n     */\r\n    struct Customer {\r\n        string userName;   //unique\r\n        string data_hash;  //unique\r\n        uint8 upvotes;\r\n        address bank;\r\n        uint rating;\r\n        string password;\r\n    }\r\n\r\n    /*\r\n    Struct for a Bank\r\n     */\r\n    struct Bank {\r\n        address ethAddress;   //unique  \r\n        string bankName;\r\n        string regNumber;       //unique\r\n        uint rating;   \r\n        uint KYC_count;\r\n    }\r\n\r\n    /*\r\n    Struct for a KYC Request\r\n     */\r\n    struct KYCRequest {\r\n        string userName;     \r\n        string data_hash;  //unique\r\n        address bank;\r\n        bool isAllowed;\r\n    }\r\n\r\n    /*\r\n    Mapping a customer's username to the Customer struct\r\n    We also keep an array of all keys of the mapping to be able to loop through them when required.\r\n     */\r\n    mapping(string => Customer) customers;\r\n    string[] customerNames;\r\n\r\n    /*\r\n    Mapping a bank's address to the Bank Struct\r\n    We also keep an array of all keys of the mapping to be able to loop through them when required.\r\n     */\r\n    mapping(address => Bank) banks;\r\n    address[] bankAddresses;\r\n\r\n    /*\r\n    Mapping a customer's Data Hash to KYC request captured for that customer.\r\n    This mapping is used to keep track of every kycRequest initiated for every customer by a bank.\r\n     */\r\n    mapping(string => KYCRequest) kycRequests;\r\n    string[] customerDataList;\r\n\r\n    /*\r\n    Mapping a customer's user name with a bank's address\r\n    This mapping is used to keep track of every upvote given by a bank to a customer\r\n     */\r\n    mapping(string => mapping(address => uint256)) upvotes;\r\n\r\n    /**\r\n     * Constructor of the contract.\r\n     * We save the contract's admin as the account which deployed this contract.\r\n     */\r\n    constructor() public {\r\n        admin = msg.sender;\r\n    }\r\n\r\n    /**\r\n     * Record a new KYC request on behalf of a customer\r\n     * The sender of message call is the bank itself\r\n     * @param  {string} _userName The name of the customer for whom KYC is to be done\r\n     * @param  {address} _bankEthAddress The ethAddress of the bank issuing this request\r\n     * @return {bool}        True if this function execution was successful\r\n     */\r\n    function addKycRequest(string memory _userName, string memory _customerData) public returns (uint8) {\r\n        // Check that the user's KYC has not been done before, the Bank is a valid bank and it is allowed to perform KYC.\r\n        require(kycRequests[_customerData].bank == address(0), \"This user already has a KYC request with same data in process.\");\r\n        //bytes memory uname = new bytes(bytes(_userName));\r\n        // Save the timestamp for this KYC request.\r\n        \r\n        if(2*(banks[msg.sender].rating)>1){\r\n        kycRequests[_customerData].data_hash = _customerData;\r\n        kycRequests[_customerData].userName = _userName;\r\n        kycRequests[_customerData].bank = msg.sender;\r\n        kycRequests[_customerData].isAllowed = true;\r\n        customerDataList.push(_customerData);\r\n        return 1;\r\n        }\r\n        return 0;\r\n    }\r\n\r\n    /**\r\n     * Add a new customer\r\n     * @param {string} _userName Name of the customer to be added\r\n     * @param {string} _hash Hash of the customer's ID submitted for KYC\r\n     */\r\n    function addCustomer(string memory _userName, string memory _customerData) public returns (uint8) {\r\n        require(customers[_userName].bank == address(0), \"This customer is already present, please call modifyCustomer to edit the customer data\");\r\n        require(kycRequests[_customerData].isAllowed == true);\r\n        customers[_userName].userName = _userName;\r\n        customers[_userName].data_hash = _customerData;\r\n        customers[_userName].bank = msg.sender;\r\n        customers[_userName].upvotes = 0;\r\n        customerNames.push(_userName);\r\n        return 1;\r\n    }\r\n\r\n    /**\r\n     * Remove KYC request\r\n     * @param  {string} _userName Name of the customer\r\n     * @return {uint8}         A 0 indicates failure, 1 indicates success\r\n     */\r\n    function removeKYCRequest(string memory _userName) public returns (uint8) {\r\n        uint8 i=0;\r\n        for ( i = 0; i< customerDataList.length; i++) {\r\n            if (stringsEquals(kycRequests[customerDataList[i]].userName,_userName)) {\r\n                delete kycRequests[customerDataList[i]];\r\n                for(uint j = i+1;j < customerDataList.length;j++) \r\n                { \r\n                    customerDataList[j-1] = customerDataList[j];\r\n                }\r\n                customerDataList.length --;\r\n                i=1;\r\n            }\r\n        }\r\n        return i; // 0 is returned if no request with the input username is found.\r\n    }\r\n\r\n    /**\r\n     * Remove customer information\r\n     * @param  {string} _userName Name of the customer\r\n     * @return {uint8}         A 0 indicates failure, 1 indicates success\r\n     */\r\n    function removeCustomer(string memory _userName) public returns (uint8) {\r\n            for(uint i = 0;i < customerNames.length;i++) \r\n            { \r\n                if(stringsEquals(customerNames[i],_userName))\r\n                {\r\n                    delete customers[_userName];\r\n                    for(uint j = i+1;j < customerNames.length;j++) \r\n                    {\r\n                        customerNames[j-1] = customerNames[j];\r\n                    }\r\n                    customerNames.length--;\r\n                    return 1;\r\n                }\r\n                \r\n            }\r\n            return 0;\r\n    }\r\n\r\n    /**\r\n     * Edit customer information\r\n     * @param  {public} _userName Name of the customer\r\n     * @param  {public} _hash New hash of the updated ID provided by the customer\r\n     * @return {uint8}         A 0 indicates failure, 1 indicates success\r\n     */\r\n    function modifyCustomer(string memory _userName, string memory _newcustomerData) public returns (uint8) {\r\n        for(uint i = 0;i < customerNames.length;i++) \r\n            { \r\n                if(stringsEquals(customerNames[i],_userName))\r\n                {\r\n                    customers[_userName].data_hash = _newcustomerData;\r\n                    return 1;\r\n                }\r\n            \r\n            }\r\n            return 0;\r\n    }\r\n\r\n    /**\r\n     * View customer information\r\n     * @param  {public} _userName Name of the customer\r\n     * @return {string} data_hash \r\n     */\r\n    function viewCustomer(string memory _userName, string memory _password) public view returns (string memory) {\r\n        bytes memory a = bytes(_password);\r\n        if(a.length == 0){\r\n            _password = \"0\";\r\n            return customers[_userName].data_hash;\r\n        }\r\n        bytes memory b = bytes(customers[_userName].password);\r\n        if(a.length == b.length){\r\n            for(uint i=0; i<a.length; i++){\r\n                if(a[i]!=b[i]){\r\n                    return \"0\";\r\n                }\r\n            }\r\n            return customers[_userName].data_hash;\r\n        }\r\n\r\n    }\r\n\r\n    /**\r\n     * Add a new upvote from a bank\r\n     * @param {string} _userName Name of the customer to be upvoted\r\n     */\r\n    function Upvote(string memory _userName) public returns (uint8) {\r\n        for(uint i = 0;i < customerNames.length;i++) \r\n            { \r\n                if(stringsEquals(customerNames[i],_userName))\r\n                {\r\n                    customers[_userName].upvotes++;\r\n                    upvotes[_userName][msg.sender] = now;//storing the timestamp when vote was casted, not required though, additional\r\n                    return 1;\r\n                }\r\n            \r\n            }\r\n            return 0;\r\n    }\r\n\r\n    // if you are using string, you can use the following function to compare two strings\r\n    // function to compare two string value\r\n    // This is an internal fucntion to compare string values\r\n    // @Params - String a and String b are passed as Parameters\r\n    // @return - This function returns true if strings are matched and false if the strings are not matching\r\n    function stringsEquals(string storage _a, string memory _b) internal view returns (bool) {\r\n        bytes storage a = bytes(_a);\r\n        bytes memory b = bytes(_b); \r\n        if (a.length != b.length)\r\n            return false;\r\n        // @todo unroll this loop\r\n        for (uint i = 0; i < a.length; i ++)\r\n        {\r\n            if (a[i] != b[i])\r\n                return false;\r\n        }\r\n        return true;\r\n    }\r\n\r\n    /**\r\n     * Get details of bank.\r\n     * @param {address} _bankAddress Address of the bank whose details are to be fetched.\r\n     * @return ethAddress, bankName, regNumber, rating, KYC_count. This function returns the details of the bank.\r\n     */\r\n\r\n    function getBankDetails(address _bankAddress) public view returns(address, string memory, string memory, uint, uint){\r\n        return (banks[_bankAddress].ethAddress, banks[_bankAddress].bankName, banks[_bankAddress].regNumber,\r\n                banks[_bankAddress].rating, banks[_bankAddress].KYC_count);\r\n    }\r\n\r\n    /**\r\n     * Add bank ratings.\r\n     * @param {address} _bankAddress Address of the bank.\r\n     * @return 1 if rating is updated else return 0.\r\n     */\r\n    function addBankRatings(address _bankAddress) public returns(uint8){\r\n        for(uint i = 0;i < bankAddresses.length;i++) \r\n            { \r\n                if(banks[bankAddresses[i]].ethAddress == _bankAddress)\r\n                {\r\n                    banks[bankAddresses[i]].rating++;\r\n                    return 1;\r\n                }\r\n            }\r\n        return 0;\r\n    }\r\n\r\n    /**\r\n     * Get customer ratings.\r\n     * @param {string} _customerName Customer name whose rating is to be fetched.\r\n     * @return 1 if rating is updated else return 0.\r\n     */\r\n    function getCustomerRating(string memory _customerName) public view returns(uint256){\r\n            require(customers[_customerName].bank == address(0), \"Customer not found.\");\r\n            return customers[_customerName].rating;\r\n    }\r\n    \r\n    /**\r\n     * Get Bank ratings.\r\n     * @param {address} _bankAddress Address of the bank.\r\n     * @return rating of the bank.\r\n     */\r\n    function getBankRating(address _bankAddress) public view returns(uint256){\r\n            return banks[_bankAddress].rating;\r\n    }\r\n    \r\n    /**\r\n     * Get resource history.\r\n     * @param {string} _customerName Customer name.\r\n     * @return bank which updated the customer.\r\n     */\r\n    function getResourceHistory(string memory _customerName) public view returns(address){\r\n            require(customers[_customerName].bank == address(0), \"Customer not found.\");\r\n            return customers[_customerName].bank;\r\n    }\r\n\r\n    /**\r\n     * Adds a bank.\r\n     * @param {string, address, string} _bankName, _bankAddress, _regNumber. Bank name, bank address, registered number are provided as input.\r\n     * @return 1 if bank is saved successfully.\r\n     */\r\n    function addBank(string memory _bankName, address _bankAddress, string memory _regNumber) public returns(uint8){\r\n        require(msg.sender == admin, \"User does not have proper roles.\");\r\n        banks[_bankAddress].ethAddress = _bankAddress;\r\n        banks[_bankAddress].bankName = _bankName;\r\n        banks[_bankAddress].regNumber = _regNumber;\r\n        return 1;\r\n    }\r\n\r\n    /**\r\n     * Removes a bank.\r\n     * @param {address} _bankAddress Bank address is provided as input.\r\n     * @return 1 if bank is removed successfully else 0.\r\n     */\r\n    function removeBank(address _bankAddress) public  returns(uint8){\r\n        require(msg.sender == admin, \"User does not have proper roles.\");\r\n        for(uint i = 0; i < bankAddresses.length; i++) \r\n            { \r\n                if(banks[bankAddresses[i]].ethAddress == _bankAddress)\r\n                {\r\n                    delete banks[_bankAddress];\r\n                    for(uint j = i+1;j < bankAddresses.length;j++) \r\n                    {\r\n                        bankAddresses[j-1] = bankAddresses[j];\r\n                    }\r\n                    bankAddresses.length--;\r\n                    return 1;\r\n                }\r\n                \r\n            }\r\n            return 0;\r\n    }\r\n\r\n    /**\r\n     * Sets a password for customer.\r\n     * @param {string, string} _userName, _password. Customer' username and passowrd is provided as input.\r\n     * @return 1 if bank is removed successfully else 0.\r\n     */\r\n    function setPassword(string memory _userName, string memory _password) public returns(uint8){\r\n        customers[_userName].password = _password;\r\n        return 1;\r\n    }\r\n\r\n    /**\r\n     * Gets bank requests.\r\n     * @param {address} _bankAddress. Bank address is provided as input.\r\n     * @return KYC_count of bank.\r\n     */\r\n    function getBankRequests(address _bankAddress) public view returns(uint){\r\n        return banks[_bankAddress].KYC_count;     \r\n    } \r\n}\r\n",
  "sourcePath": "C:/election/contracts/KYC.sol",
  "compiler": {
    "name": "solc",
    "version": "0.5.9+commit.e560f70d.Emscripten.clang"
  },
  "schemaVersion": "3.0.17",
  "updatedAt": "2019-11-10T19:56:54.547Z",
  "devdoc": {
    "methods": {
      "Upvote(string)": {
        "params": {
          "": "{string} _userName Name of the customer to be upvoted\r"
        }
      },
      "addBank(string,address,string)": {
        "params": {
          "": "{string, address, string} _bankName, _bankAddress, _regNumber. Bank name, bank address, registered number are provided as input.\r"
        },
        "return": "1 if bank is saved successfully.\r"
      },
      "addBankRatings(address)": {
        "params": {
          "": "{address} _bankAddress Address of the bank.\r"
        },
        "return": "1 if rating is updated else return 0.\r"
      },
      "addCustomer(string,string)": {
        "params": {
          "": "{string} _hash Hash of the customer's ID submitted for KYC\r"
        }
      },
      "addKycRequest(string,string)": {
        "params": {
          "": "{address} _bankEthAddress The ethAddress of the bank issuing this request\r"
        },
        "return": "{bool}        True if this function execution was successful\r"
      },
      "getBankDetails(address)": {
        "params": {
          "": "{address} _bankAddress Address of the bank whose details are to be fetched.\r"
        },
        "return": "ethAddress, bankName, regNumber, rating, KYC_count. This function returns the details of the bank.\r"
      },
      "getBankRating(address)": {
        "params": {
          "": "{address} _bankAddress Address of the bank.\r"
        },
        "return": "rating of the bank.\r"
      },
      "getBankRequests(address)": {
        "params": {
          "": "{address} _bankAddress. Bank address is provided as input.\r"
        },
        "return": "KYC_count of bank.\r"
      },
      "getCustomerRating(string)": {
        "params": {
          "": "{string} _customerName Customer name whose rating is to be fetched.\r"
        },
        "return": "1 if rating is updated else return 0.\r"
      },
      "getResourceHistory(string)": {
        "params": {
          "": "{string} _customerName Customer name.\r"
        },
        "return": "bank which updated the customer.\r"
      },
      "modifyCustomer(string,string)": {
        "params": {
          "": "{public} _hash New hash of the updated ID provided by the customer\r"
        },
        "return": "{uint8}         A 0 indicates failure, 1 indicates success\r"
      },
      "removeBank(address)": {
        "params": {
          "": "{address} _bankAddress Bank address is provided as input.\r"
        },
        "return": "1 if bank is removed successfully else 0.\r"
      },
      "removeCustomer(string)": {
        "params": {
          "": "{string} _userName Name of the customer\r"
        },
        "return": "{uint8}         A 0 indicates failure, 1 indicates success\r"
      },
      "removeKYCRequest(string)": {
        "params": {
          "": "{string} _userName Name of the customer\r"
        },
        "return": "{uint8}         A 0 indicates failure, 1 indicates success\r"
      },
      "setPassword(string,string)": {
        "params": {
          "": "{string, string} _userName, _password. Customer' username and passowrd is provided as input.\r"
        },
        "return": "1 if bank is removed successfully else 0.\r"
      },
      "viewCustomer(string,string)": {
        "params": {
          "": "{public} _userName Name of the customer\r"
        },
        "return": "{string} data_hash \r"
      }
    }
  },
  "userdoc": {
    "methods": {
      "Upvote(string)": {
        "notice": "Add a new upvote from a bank\r"
      },
      "addBank(string,address,string)": {
        "notice": "Adds a bank.\r"
      },
      "addBankRatings(address)": {
        "notice": "Add bank ratings.\r"
      },
      "addCustomer(string,string)": {
        "notice": "Add a new customer\r"
      },
      "addKycRequest(string,string)": {
        "notice": "Record a new KYC request on behalf of a customer\r The sender of message call is the bank itself\r"
      },
      "constructor": "Constructor of the contract.\r We save the contract's admin as the account which deployed this contract.\r",
      "getBankDetails(address)": {
        "notice": "Get details of bank.\r"
      },
      "getBankRating(address)": {
        "notice": "Get Bank ratings.\r"
      },
      "getBankRequests(address)": {
        "notice": "Gets bank requests.\r"
      },
      "getCustomerRating(string)": {
        "notice": "Get customer ratings.\r"
      },
      "getResourceHistory(string)": {
        "notice": "Get resource history.\r"
      },
      "modifyCustomer(string,string)": {
        "notice": "Edit customer information\r"
      },
      "removeBank(address)": {
        "notice": "Removes a bank.\r"
      },
      "removeCustomer(string)": {
        "notice": "Remove customer information\r"
      },
      "removeKYCRequest(string)": {
        "notice": "Remove KYC request\r"
      },
      "setPassword(string,string)": {
        "notice": "Sets a password for customer.\r"
      },
      "viewCustomer(string,string)": {
        "notice": "View customer information\r"
      }
    }
  }
}